:0300000002026D8C
:0C026D00787FE4F6D8FD7581460202B4EB
:10059C008F448C458D4612070D7FA01205731206F1
:1005AC00E3AF441205731206E3AF4612057312064D
:0405BC00E302000353
:020543008F44E3
:1005450012070D7FA01205731206E3AF441205735F
:100555001206E312070D7FA11205731206E31205B9
:0D056500E38F457F011206EF120003AF4542
:010572002266
:10069E00EF1FAC0670011E4C600A7D027CEFDCFE83
:0406AE00DDFC80EC03
:0106B2002225
:09070D00D2A0D2A1C2A0C2A12217
:07000300C2A0D2A1D2A0228D
:02057300AD07D2
:10057500E4FB74807E00A803088006CEA2E713CEB4
:1005850013D8F8FFEDF582EF558224FF92A0D2A192
:06059500C2A10BBB08DC53
:01059B00223D
:1005E300E4FFD2A0FED2A130A00D7480A80608803B
:0D05F30002C313D8FC4207C2A10EBE08E8E7
:0106000022D7
:0A06EF00EF24FF92A0D2A1C2A122C5
:0B06E300D2A0D2A1A2A0E433FFC2A16C
:0106EE0022E9
:1002F900E4F54420B0137F14FE12069E30B0FD7F52
:10030900147E0012069E75440120B1147F147E00EC
:1003190012069E30B1FD7F147E0012069E754402BE
:1003290020B2147F147E0012069E30B2FD7F147E27
:100339000012069E75440320B3147F147E00120632
:100349009E30B3FD7F147E0012069E754404C2934D
:100359002097147F147E0012069E3097FD7F147E2D
:090369000012069E754405AF4424
:010372002268
:0606C700C2A58F80D2A73E
:0806CD007F027EEFDEFEDFFC80
:0106D5002202
:0A06F900C2A61206C7C2A70206CD72
:10060100CFCDCFCECCCE1202077C007D0A120207DD
:04061100ED2430FFA5
:0A061500D2A61206C7C2A70206CD46
:10068800AE07BE0104ED148006BE0209ED243F4406
:0606980080FF1206F922AA
:1006B3007F381206F97F0C1206F97F061206F97FBE
:0406C300010206F931
:0A070300AC03120688AF04020615CD
:0605C0008B448A458946C8
:1005C600120688E4FDAB44AA45A9468D82758300D0
:0C05D6001201C8FF60061206150D80E936
:0105E20022F6
:0C04DF007F0AEA24FFFDE434FFFC7E00ED
:0804EB008E408F418C428D43CD
:1004F3007F017E00E4FBEBC39543E5426480F8741F
:0E0503008098500AAC40AD411201F50B80E823
:0105110022C7
:04061F008A338B345B
:10062300120688AA35EAD39400400D1204DFAC33D6
:08063300AD341206011A80ED3E
:01063B00229C
:10043400120688C3EA64809480400B7F2B12061551
:100444008A2F8B30800E7F2D120615C3E49BF53066
:10045400E49AF52FAA2EEAD39400400D1204DFACDF
:090464002FAD301206011A80EDE3
:01046D00226C
:04046E008A388B3904
:10047200120688AA3AEAD3940040297F101204E1B6
:10048200AC38AD39CFCDCFCECCCE120207EF540F60
:10049200FEC3940AEE5004243080022437FF120671
:0404A200151A80D1D6
:0104A6002233
:0404A7008A3D8B3EC1
:1004AB00120688AA3FEAD394004028EA24FFFDE411
:1004BB0034FFFC7F027E001204EBAC3DAD3ECFCD92
:1004CB00CFCECCCE120207EF54012430FF1206150B
:0304DB001A80D2B2
:0104DE0022FB
:0D06D6004A554447455F53595354454D0064
:10000E001206B37BFF7A0679D67D017F011205C0F9
:10001E001206711202F98F27E527B4010CE5227042
:10002E00047F0180027F008F22E527B40209E4F5E8
:10003E0020F521F528F529E527B40318E4FF12056C
:10004E00438F217F011205438F207F0212054375D6
:10005E0028008F29E52764047032E521FD7C00E439
:10006E00FF12059C7F057E0012069EE520FD7C009A
:10007E007F0112059C7F057E0012069EAD29AC28DD
:10008E007F0212059C7F057E0012069EE527640501
:10009E00600302014AAF20FE7C037DE81201F5AA3F
:1000AE0006AB07AE21E52175F0EAA4CE75F060A48B
:1000BE00FFE5F02EFEEF2BFFEE3AFEE5292FFFE5D2
:1000CE00283EFEE48F268E25F524F5237F1C7E2503
:1000DE00FDFCAB26AA25A924A823D312025C500648
:1000EE00D2A1C2A08056E47F047E29FDFCAB26AAD5
:1000FE0025A924A823D312025C5014E47F1C7E256C
:10010E00FDFCA82312025C4006D2A0C2A1802DE401
:10011E007FEC7E2CFDFCAB26AA25A924A823D312A6
:10012E00025C5014E47F047E29FDFCA82312025CBD
:10013E004006C2A0C2A18004D2A0D2A1E52175F0D2
:10014E000A84E5F0FD7C007F011207167D0B7C0012
:10015E007F02120716E52075F00A84FD7C007F03EE
:10016E00120716E52075F00A84E5F0FD7C007F0489
:10017E001207167D0B7C007F05120716AE28AF29DD
:10018E007C007D64120207AC06AD077F06120716CF
:10019E00AE28AF297C007D0A1202077C007D0A1270
:1001AE0002077F07120716AE28AF297C007D0A12C0
:0A01BE0002077F0812071602002155
:10051200E522602C0529E52970020528C394E8E547
:10052200289403401BE4F528F5290520E520943C96
:10053200400EE4F5200521E521943C4003E4F52139
:010542002296
:03000B000203D914
:1003D900C0E0C0F0C083C082C0D075D000C000C0EA
:0D03E90001C002C003C004C005C006C0076B
:1003F600758A18758CFC051FE51F7002051EC394CF
:1004060002E51E94004009751E00751F0012063C89
:03041600120512BA
:10041900D007D006D005D004D003D002D001D00037
:0B042900D0D0D082D083D0F0D0E032E1
:100671005389F0438901758A18758CFCC28DD28C1F
:07068100D2A9D2AFC2B922D9
:100657000909000A0A0A0A0A0A0A0A0C123F065B73
:090667004F666D7D077F6F0040B6
:09071600AE0574092FF8A60622B5
:10037300E4F580EF14B40800505490038B75F00338
:10038300A4C58325F0C583730203A30203A7020355
:10039300AB0203AF0203B30203BB0203C30203CBEB
:1003A300D2A4800ED2A48012D2A48016D2A4801A22
:1003B300C2A4D2A3D2A28016C2A4D2A3C2A2800E88
:1003C300C2A4C2A3D2A28006C2A4C2A3C2A27412B0
:0603D3002DF8E6F5802282
:10063C0074092508F8E6FD7C00AF08120373050861
:0A064C00E508C39409400375080196
:010656002281
:1002790002000EE493A3F8E493A34003F68001F28D
:1002890008DFF48029E493A3F85407240CC8C33386
:10029900C4540F4420C8834004F456800146F6DF55
:1002A900E4800B0102040810204080900657E47E88
:1002B900019360BCA3FF543F30E509541FFEE4934A
:1002C900A360010ECF54C025E060A840B8E493A311
:1002D900FAE493A3F8E493A3C8C582C8CAC583CA3C
:1002E900F0A3C8C582C8CAC583CADFE9DEE780BEF4
:010670000089
:1001C800BB010CE58229F582E5833AF583E02250EC
:1001D80006E92582F8E622BBFE06E92582F8E22236
:0D01E800E58229F582E5833AF583E4932250
:1001F500EF8DF0A4A8F0CF8CF0A428CE8DF0A42E1E
:02020500FE22D7
:10020700BC000BBE0029EF8DF084FFADF022E4CCDB
:10021700F875F008EF2FFFEE33FEEC33FCEE9DECA4
:10022700984005FCEE9DFE0FD5F0E9E4CEFD22EDEA
:10023700F8F5F0EE8420D21CFEADF075F008EF2F34
:10024700FFED33FD4007985006D5F0F222C398FD25
:050257000FD5F0EA22C2
:10025C00EB9FF5F0EA9E42F0E99D42F0E89C45F0F8
:01026C00226F
:00000001FF
