:0300000002028178
:0C028100787FE4F6D8FD7581460202C8C3
:1005B0008F448C458D461207267FA01205871206B0
:1005C000FCAF441205871206FCAF461205871206DF
:0405D000FC02000326
:020557008F44CF
:100559001207267FA01205871206FCAF44120587F1
:100569001206FC1207267FA11205871206FC120546
:0D057900F78F457F01120708120003AF4500
:010586002252
:1006B200EF1FAC0670011E4C600A7D027CEFDCFE6F
:0406C200DDFC80ECEF
:0106C6002211
:09072600D2A0D2A1C2A0C2A122FE
:07000300C2A0D2A1D2A0228D
:02058700AD07BE
:10058900E4FB74807E00A803088006CEA2E713CEA0
:1005990013D8F8FFEDF582EF558224FF92A0D2A17E
:0605A900C2A10BBB08DC3F
:0105AF002229
:1005F700E4FFD2A0FED2A130A00D7480A806088027
:0D06070002C313D8FC4207C2A10EBE08E8D2
:0106140022C3
:0A070800EF24FF92A0D2A1C2A122AB
:0B06FC00D2A0D2A1A2A0E433FFC2A153
:0107070022CF
:10030D00E4F54420B0137F14FE1206B230B0FD7F29
:10031D00147E001206B275440120B1147F147E00C4
:10032D001206B230B1FD7F147E001206B275440282
:10033D0020B2147F147E001206B230B2FD7F147EFF
:10034D00001206B275440320B3147F147E0012060A
:10035D00B230B3FD7F147E001206B2754404C29311
:10036D002097147F147E001206B23097FD7F147E05
:09037D00001206B2754405AF44FC
:010386002254
:0606ED00C2A58F80D2A718
:0806F3007F027EEFDEFEDFFC5A
:0106FB0022DC
:0A071200C2A61206EDC2A70206F30C
:10061500CFCDCFCECCCE12021B7C007D0A12021BA1
:04062500ED2430FF91
:0A062900D2A61206EDC2A70206F3E6
:10069C00AE07BE0104ED148006BE0209ED243F44F2
:0606AC0080FF120712227C
:1006C7007F381207127F0C1207127F061207127F5C
:0406D7000102071203
:0A071C00AC0312069CAF040206298C
:0605D4008B448A458946B4
:1005DA0012069CE4FDAB44AA45A9468D82758300A8
:0C05EA001201DCFF60061206290D80E9FA
:0105F60022E2
:0C04F3007F0AEA24FFFDE434FFFC7E00D9
:0804FF008E408F418C428D43B9
:100507007F017E00E4FBEBC39543E5426480F8740A
:0E0517008098500AAC40AD411202090B80E8FA
:0105250022B3
:040633008A338B3447
:1006370012069CAA35EAD39400400D1204F3AC339A
:08064700AD341206151A80ED16
:01064F002288
:1004480012069CC3EA64809480400B7F2B12062915
:100458008A2F8B30800E7F2D120629C3E49BF5303E
:10046800E49AF52FAA2EEAD39400400D1204F3ACB7
:090478002FAD301206151A80EDBB
:010481002258
:040482008A388B39F0
:1004860012069CAA3AEAD3940040297F101204F57A
:10049600AC38AD39CFCDCFCECCCE12021BEF540F38
:1004A600FEC3940AEE5004243080022437FF12065D
:0404B600291A80D1AE
:0104BA00221F
:0404BB008A3D8B3EAD
:1004BF0012069CAA3FEAD394004028EA24FFFDE4E9
:1004CF0034FFFC7F027E001204FFAC3DAD3ECFCD6A
:1004DF00CFCECCCE12021BEF54012430FF120629CF
:0304EF001A80D29E
:0104F20022E7
:1006DB00596F75725F6D61726B3A004661696C653B
:0206EB006400A9
:10000E001206C77BFF7A0679DB7D017F011205D4CC
:10001E0012068512030D8F27E527B4010CE5227019
:10002E00047F0180027F008F22E527B40209E4F5E8
:10003E0020F521F528F529E527B40318E4FF12056C
:10004E00578F217F011205578F207F02120557759A
:10005E0028008F29E52764047032E521FD7C00E439
:10006E00FF1205B07F057E001206B2E520FD7C0072
:10007E007F011205B07F057E001206B2AD29AC28B5
:10008E007F021205B07F057E001206B2E5276405D9
:10009E00600302015EAF20FE7C037DE8120209AA16
:1000AE0006AB07AE21E52175F0EAA4CE75F060A48B
:1000BE00FFE5F02EFEEF2BFFEE3AFEE5292FFFE5D2
:1000CE00283EFEE48F268E25F524F5237F1C7E2503
:1000DE00FDFCAB26AA25A924A823D3120270500931
:1000EE007B417D0B7F0212071CE47F047E29FDFC01
:1000FE00AB26AA25A924A823D31202705017E47F99
:10010E001C7E25FDFCA82312027040097B427D0B4C
:10011E007F0212071CE47FEC7E2CFDFCAB26AA2589
:10012E00A924A823D31202705019E47F047E29FD5E
:10013E00FCA823120270400B7B437D0B7F0212073B
:10014E001C800D7BFF7A0679E67D0B7F021205D4AB
:10015E00E52175F00A84E5F0FD7C007F0112072F82
:10016E007D0B7C007F0212072FE52075F00A84FDBF
:10017E007C007F0312072FE52075F00A84E5F0FD61
:10018E007C007F0412072F7D0B7C007F0512072F4A
:10019E00AE28AF297C007D6412021BAC06AD077F32
:1001AE000612072FAE28AF297C007D0A12021B7C97
:1001BE00007D0A12021B7F0712072FAE28AF297C83
:0E01CE00007D0A12021B7F0812072F0200217B
:10052600E522602C0529E52970020528C394E8E533
:10053600289403401BE4F528F5290520E520943C82
:10054600400EE4F5200521E521943C4003E4F52125
:010556002282
:03000B000203ED00
:1003ED00C0E0C0F0C083C082C0D075D000C000C0D6
:0D03FD0001C002C003C004C005C006C00757
:10040A00758A18758CFC051FE51F7002051EC394BA
:10041A0002E51E94004009751E00751F0012065061
:03042A0012052692
:10042D00D007D006D005D004D003D002D001D00023
:0B043D00D0D0D082D083D0F0D0E032CD
:100685005389F0438901758A18758CFCC28DD28C0B
:07069500D2A9D2AFC2B922C5
:10066B000909000A0A0A0A0A0A0A0A0C123F065B5F
:09067B004F666D7D077F6F0040A2
:09072F00AE0574092FF8A606229C
:10038700E4F580EF14B40800505490039F75F00310
:10039700A4C58325F0C583730203B70203BB020319
:1003A700BF0203C30203C70203CF0203D70203DF5F
:1003B700D2A4800ED2A48012D2A48016D2A4801A0E
:1003C700C2A4D2A3D2A28016C2A4D2A3C2A2800E74
:1003D700C2A4C2A3D2A28006C2A4C2A3C2A274129C
:0603E7002DF8E6F580226E
:1006500074092508F8E6FD7C00AF08120387050839
:0A066000E508C39409400375080182
:01066A00226D
:10028D0002000EE493A3F8E493A34003F68001F279
:10029D0008DFF48029E493A3F85407240CC8C33372
:1002AD00C4540F4420C8834004F456800146F6DF41
:1002BD00E4800B010204081020408090066BE47E60
:1002CD00019360BCA3FF543F30E509541FFEE49336
:1002DD00A360010ECF54C025E060A840B8E493A3FD
:1002ED00FAE493A3F8E493A3C8C582C8CAC583CA28
:1002FD00F0A3C8C582C8CAC583CADFE9DEE780BEE0
:010684000075
:1001DC00BB010CE58229F582E5833AF583E02250D8
:1001EC0006E92582F8E622BBFE06E92582F8E22222
:0D01FC00E58229F582E5833AF583E493223C
:10020900EF8DF0A4A8F0CF8CF0A428CE8DF0A42E09
:02021900FE22C3
:10021B00BC000BBE0029EF8DF084FFADF022E4CCC7
:10022B00F875F008EF2FFFEE33FEEC33FCEE9DEC90
:10023B00984005FCEE9DFE0FD5F0E9E4CEFD22EDD6
:10024B00F8F5F0EE8420D21CFEADF075F008EF2F20
:10025B00FFED33FD4007985006D5F0F222C398FD11
:05026B000FD5F0EA22AE
:10027000EB9FF5F0EA9E42F0E99D42F0E89C45F0E4
:01028000225B
:00000001FF
