:030000000201B04A
:0C01B000787FE4F6D8FD7581700201F73D
:100436005389F0438901758A18758CFCC28DD28C5C
:07044600D2A9D2AFC2B92216
:10044D00EF1FAC0670011E4C600A7D027CEFDCFED6
:04045D00DDFC80EC56
:010461002278
:10000E004841505059204E45572059454152000005
:10001E00040004000400041D0200021D021B02194C
:10002E0002000200041D0200021D021B0219020042
:10003E000200041D0200021D021B0219020002141E
:10004E000200021102000216020002140200020057
:10005E00021602140200021602000214020002002E
:10006E0002160214011601180116011401160118C8
:10007E0001160114011601180116011401160118BA
:10008E0001160114011601180116011401160118AA
:10009E00011601140116011801160114011601189A
:1000AE00011601140414041404000414041402169A
:1000BE000214020002140216021904190216021981
:1000CE0002000219021B021D041D021B021D041D4B
:1000DE00021B021D041D021B021904190216021432
:1000EE00041402160214041402160219041902163C
:1000FE00021902000219021B021D041D021B021D21
:0E010E00041D021B021D041D021B021904FF2A
:10023C00204A0A0000F88CF8F3F95BF9B8FA15FAC1
:10024C0067FAB9FB04FB4BFB90FBCFFC10FC44FCA6
:10025C0079FCACFCDCFD09FD34FD5CFD82FDA6FDEA
:10026C00C8FDE8FE06FE22FE3DFE56FE6EFE85FE35
:0D027C009AFEAEFEC1FED3FEE4FEF4FF03C9
:10028A001204367BFF7A00790E7D017F011203DAB0
:10029A00E50890001D93FFF460208F090508E50822
:1002AA009375F03EA4FFAEF012044D0508C28C7F90
:0E02BA00057E0012044DD28C80D6C28C80FED0
:03000B000203737A
:10037300C0E0C0D075D000C000C006E50925E02468
:100383000AF8E6FE08E64E6012E50925E0240AF8BD
:10039300E6FE08E6F58AEEF58CB2A5D006D000D0CD
:0403A300D0D0E032A4
:06048600C2A58F80D2A781
:08048C007F027EEFDEFEDFFCC3
:010494002245
:08000300C2A6120486C2A72266
:10041A00CFCDCFCECCCE12015B7C007D0A12015B20
:04042A00ED2430FF8E
:08042E00D2A6120486C2A72227
:100462007F381200037F0C1200037F061200037F05
:040472000102000380
:10047600EDBF0103148002243F4480FF12000322D3
:0A049500AC03120476AF0402042E3B
:0603DA008B6E8A6F897032
:1003E000120476E4FDAB6EAA6FA9708D827583004E
:0C03F00012011CFF600612042E0D80E9B3
:0103FC0022DE
:0C03A7007F0AEA24FFFDE434FFFC7E0026
:0803B3008E6A8F6B8C6C8D6D5E
:1003BB007F017E00E4FBEBC3956DE56C6480F87404
:0E03CB008098500AAC6AAD6B1201490B80E8B5
:0103D9002201
:0403FD008A5D8B5E2C
:10040100120476AA5FEAD39400400D1203A7AC5DF3
:08041100AD5E12041A1A80ED21
:0104190022C0
:1002C800120476C3EA64809480400B7F2B12042EBC
:1002D8008A598B5A800E7F2D12042EC3E49BF55A3F
:1002E800E49AF559AA58EAD39400400D1203A7AC32
:0902F80059AD5A12041A1A80EDE6
:0103010022D9
:040302008A628B631D
:10030600120476AA64EAD3940040297F101203A946
:10031600AC62AD63CFCDCFCECCCE12015BEF540F26
:10032600FEC3940AEE5004243080022437FF1204E0
:040336002E1A80D12A
:01033A0022A0
:04033B008A678B68DA
:10033F00120476AA69EAD394004028EA24FFFDE468
:10034F0034FFFC7F027E001203B3AC67AD68CFCDE4
:10035F00CFCECCCE12015BEF54012430FF12042E0E
:03036F001A80D21F
:010372002268
:1001BC0002028AE493A3F8E493A34003F68001F2CD
:1001CC0008DFF48029E493A3F85407240CC8C33344
:1001DC00C4540F4420C8834004F456800146F6DF13
:1001EC00E4800B010204081020408090023CE47E65
:1001FC00019360BCA3FF543F30E509541FFEE49308
:10020C00A360010ECF54C025E060A840B8E493A3CE
:10021C00FAE493A3F8E493A3C8C582C8CAC583CAF9
:10022C00F0A3C8C582C8CAC583CADFE9DEE780BEB1
:010289000074
:10011C00BB010CE58229F582E5833AF583E0225098
:10012C0006E92582F8E622BBFE06E92582F8E222E2
:0D013C00E58229F582E5833AF583E49322FC
:10014900EF8DF0A4A8F0CF8CF0A428CE8DF0A42ECA
:02015900FE2284
:10015B00BC000BBE0029EF8DF084FFADF022E4CC88
:10016B00F875F008EF2FFFEE33FEEC33FCEE9DEC51
:10017B00984005FCEE9DFE0FD5F0E9E4CEFD22ED97
:10018B00F8F5F0EE8420D21CFEADF075F008EF2FE1
:10019B00FFED33FD4007985006D5F0F222C398FDD2
:0501AB000FD5F0EA226F
:00000001FF
