:0300000002046D8A
:0C046D00787FE4F6D8FD75812602018C32
:10042400EF1FAC0670011E4C600A7D027CEFDCFEFF
:04043400DDFC80EC7F
:0104380022A1
:10000300E4F5087590FFC2932097137F14FE120442
:10001300243097FD7F147E00120424750801209676
:10002300147F147E001204243096FD7F147E001288
:1000330004247508052095147F147E0012042430CF
:1000430095FD7F147E001204247508092094147F03
:10005300147E001204243094FD7F147E00120424C5
:1000630075080D7590FFC2922097147F147E0012BD
:1000730004243097FD7F147E0012042475080220A7
:1000830096147F147E001204243096FD7F147E00A4
:100093001204247508062095147F147E001204248C
:1000A3003095FD7F147E0012042475080A209414F1
:1000B3007F147E001204243094FD7F147E0012040A
:1000C3002475080E7590FFC2912097147F147E004B
:1000D3001204243097FD7F147E0012042475080354
:1000E3002096147F147E001204243096FD7F147E24
:1000F300001204247508072095147F147E0012044F
:10010300243095FD7F147E0012042475080B20947F
:10011300147F147E001204243094FD7F147E001299
:10012300042475080F7590FFC2902097147F147EE6
:10013300001204243097FD7F147E001204247508F6
:10014300042096147F147E001204243096FD7F143D
:100153007E001204247508082095147F147E001273
:1001630004243095FD7F147E0012042475080C20AE
:1001730094147F147E001204243094FD7F147E00B7
:08018300120424750810AF08F6
:01018B002251
:06045E00C2A58F80D2A7A9
:080464007F027EEFDEFEDFFCEB
:01046C00226D
:0A047900C2A612045EC2A7020464CA
:1003D300CFCDCFCECCCE12027D7C007D0A12027D22
:0403E300ED2430FFD6
:0A03E700D2A612045EC2A70204644D
:10040E00AE07BE0104ED148006BE0209ED243F4482
:06041E0080FF12047922A8
:100439007F381204797F0C1204797F061204797FC0
:04044900010204792F
:0A048300AC0312040EAF040203E7FD
:0603B0008B088A09890A8E
:1003B60012040EE4FDAB08AA09A90A8D8275830012
:0C03C60012023EFF60061203E70D80E902
:0103D2002208
:0C037D007F0AEA24FFFDE434FFFC7E0050
:080389008E0D8F0E8C0F8D10FC
:100391007F017E00E4FBEBC39510E50F6480F874E8
:0E03A1008098500AAC0DAD0E12026B0B80E876
:0103AF00222B
:0403F1008A0A8B0BDE
:1003F50012040EAA0CEAD39400400D12037DAC0A38
:08040500AD0B1203D31A80EDC8
:01040D0022CC
:1002D20012040EC3EA64809480400B7F2B1203E762
:1002E2008A168B17800E7F2D1203E7C3E49BF51746
:1002F200E49AF516AA15EAD39400400D12037DACD8
:0903020016AD171203D31A80EDA9
:01030B0022CF
:04030C008A1A8B1BA3
:1003100012040EAA1CEAD3940040297F1012037F16
:10032000AC1AAD1BCFCDCFCECCCE12027DEF540F89
:10033000FEC3940AEE5004243080022437FF1203D7
:04034000E71A80D167
:010344002296
:040345008A1F8B2060
:1003490012040EAA21EAD394004028EA24FFFDE40E
:1003590034FFFC7F027E00120389AC1FAD20CFCD94
:10036900CFCECCCE12027DEF54012430FF1203E729
:030379001A80D215
:01037C00225E
:10044D0050617373776F72643A004F4B004552528F
:01045D00009E
:10018C001204397BFF7A04794D7D017F011203B093
:10019C001200038F26E526603BD3940A5028AE2428
:1001AC00AF257C007D0A12026B8E248F25E5267507
:1001BC00F00A84E5F02525F525E43524F5240523FE
:1001CC00E52370020522750C04AB25AA247D017F62
:1001DC00021203F1E526640B7036E525B4290DE512
:1001EC0024B409087BFF7A04795780067BFF7A04D4
:1001FC00795A7D0E7F011203B0E4F524F525F52222
:10020C00F523750C04AB25AA247D017F021203F1A2
:10021C00E526640C600302019CF524F525F522F516
:10022C0023750C04AB25AA247D017F021203F10275
:02023C00019C23
:10023E00BB010CE58229F582E5833AF583E0225075
:10024E0006E92582F8E622BBFE06E92582F8E222BF
:0D025E00E58229F582E5833AF583E49322D9
:10026B00EF8DF0A4A8F0CF8CF0A428CE8DF0A42EA7
:02027B00FE2261
:10027D00BC000BBE0029EF8DF084FFADF022E4CC65
:10028D00F875F008EF2FFFEE33FEEC33FCEE9DEC2E
:10029D00984005FCEE9DFE0FD5F0E9E4CEFD22ED74
:1002AD00F8F5F0EE8420D21CFEADF075F008EF2FBE
:1002BD00FFED33FD4007985006D5F0F222C398FDAF
:0502CD000FD5F0EA224C
:00000001FF
