:030000000206678E
:0C066700787FE4F6D8FD7581490206AEEC
:1006F300205354415254204E45572020202020009F
:100703002043484F4943452020202020202020001B
:10071300204558495420202020202020202020003C
:1007230020434F4E54494E55532020202020200073
:100733003E0020004279657E005361766520537543
:1007430063636573732100436F6E666967757261D6
:1007530074696F6E210020456173790020446966D6
:10076300666963756C740045617379204D6F6465C8
:0B077300004368616C6C656E676500F8
:10024E0001260001210001220002380006023A00B8
:10025E000602230000082700020000FFFE0000082F
:10026E002F0000FFFE00000002604000400101016F
:10027E000101010101010000000000000101000167
:10028E000100000001010001000001010101000157
:10029E000001010201010001000000000101000047
:1002AE000000000001010101010101010160400097
:1002BE0080010101010101010101000101000000A5
:1002CE000101000101000101010100000000010017
:1002DE000101000101010100010100000001000007
:1002EE0001010101000000020101010101010101F2
:1002FE00016040000000000000000000000000004F
:10030E0000000000000000000000000000000000DF
:10031E0000000000000000000000000000000000CF
:10032E0000000000000000000000000000000000BF
:05033E000000000000BA
:0D0DEC00C204C203C200C202C205C201223D
:0B0E1200E5267003020D73120BD222C4
:1005C2007BFF7A0679F3E4FDFF120AA67BFF7A0726
:1005D20079037D01E4FF120AA67BFF7A0779137D76
:1005E20002E4FF120AA67BFF7A0779237D03E4FF68
:1005F200120AA6E52170157BFF7A077933FDFF12F7
:100602000AA67BFF7A0779357D038036E521B4019E
:10061200177BFF7A0779337D01E4FF120AA67BFF7D
:100622007A077935E4FD8038E521B402187BFF7A38
:100632000779337D02E4FF120AA67BFF7A07793538
:100642007D01E4801BE521B4031A7BFF7A0779332D
:100652007D03E4FF120AA67BFF7A0779357D02E467
:05066200FF120AA622B0
:1008080020A7147FBE7E00120CEA0521E521B4045E
:1008180003E4F5210205C220B36E7FBE7E00120CF0
:10082800EAE5217020752601120D73120D5B120B7B
:10083800D2753800753906753A00753B06E4F5231C
:10084800F52412077EE521B4010C752602120D73FA
:10085800752602120D73E521B4021C120D737BFF7D
:100868007A0779377D027F02120AA67FE87E031293
:100878000CEA120D7380FEE521B4030C75260112F3
:090888000D73120D5B120D262206
:1008910020B40C7FBE7E00120CEA120988801C2055
:1008A100B50C7FBE7E00120CEA120911800D20A446
:1008B1000D7FBE7E00120CEA120D42020BD220A562
:1008C1004E7FBE7E00120CEAE4F526120BD2120D09
:1008D100CB120D267F057E00120CEA120D737BFFF1
:1008E1007A07793C7D017F01120AA67FE87E031217
:1008F1000CEA120D737F647E00120CEA120D737FF5
:10090100E87E03120CEA1205C2120D731205C2220F
:100D8B00E4F51D7B0A7D01AF1D120AF8051DE51D5B
:050D9B00C3948040EE4E
:010DA0002230
:100A5400AE3AAF3B7C007D04120478EF7803C333D5
:100A6400CE33CED8F92400F58274003EF583AE3837
:100A7400AF397C007D04120478E5822FF582E5838A
:100A84003EF583E0B4021AE4F526120DCB7BFF7A1F
:100A940007794A7D027F01120AA67FB87E0B120CE9
:020AA400EA2244
:100B49007BFF7A077959E4FDFF120AA67BFF7A0732
:100B5900795F7D01E4FF120AA6E5227BFF70117A15
:100B6900077933FDFF120AA67BFF7A0779358010D2
:100B79007A077935E4FDFF120AA67BFF7A077933F4
:080B89007D01E4FF120AA6221F
:10034400120B4920A4167FBE7E00120CEA0522E59A
:1003540022D394014003E4F522020B4930A50302A1
:100364000431E5227056F508E4F509E50875F0084E
:10037400A42440F582E43400F583E5822509F5825E
:10038400E43583F583E0FFE50875F008A42400F55F
:1003940082E43400F583E5822509F582E43583F5AA
:1003A40083EFF00509E509B408C10508E508B408B8
:1003B400B7120D737BFF7A07796A805AE5226401CC
:1003C400706BF508E4F509E50875F008A42480F5D8
:1003D40082E43400F583E5822509F582E43583F56A
:1003E40083E0FFE50875F008A42400F582E43400F6
:1003F400F583E5822509F582E43583F583EFF0057D
:1004040009E509B408C10508E508B408B7120D7375
:100414007BFF7A0779747D017F01120AA67FE87E4B
:0D04240003120CEAE4F526120D731205C256
:0104310022A8
:10077E00E5227040FEE4FFEE75F008A42440F582F9
:10078E00E43400F583E5822FF582E43583F583E0CA
:10079E00FDEE75F008A42400F582E43400F583E53F
:1007AE00822FF582E43583F583EDF00FBF08C80E76
:1007BE00BE08C222E5226401703FFEE4FFEE75F032
:1007CE0008A42480F582E43400F583E5822FF582B7
:1007DE00E43583F583E0FDEE75F008A42400F58280
:1007EE00E43400F583E5822FF582E43583F583ED5D
:0907FE00F00FBF08C80EBE08C2CE
:0108070022CE
:100CC4007F01120C137538008F397F05120C1375D0
:100CD4003A008F3B7F09120C137523008F247F0D7C
:060CE400120C138F222206
:100D26007D027F01120C9B7D027F05120C9B7D01CB
:0C0D36007F09120C9B7D017F0D020C9BBD
:100B9100E4FFE4FEEF75F008A42480F582E434005C
:100BA100F583E5822EF582E43583F583E0FDEF756B
:100BB100F008A42400F582E43400F583E5822EF5E3
:100BC10082E43583F583EDF00EBE08C80FBF08C27D
:010BD1002201
:100C43001209F91205C2E526700512080880F7E5B6
:100C530026B4020512034480EDE526B401E8120828
:0F0C6300917B017A007900120148120A5480D760
:100CEA00D3EF9400EE940040147D6E7C00ED1D70ED
:0D0CFA00011CED4C70F7EF1F70E61E80E34B
:010D070022C9
:070DB700EBC4540F2480FF80
:0D0DBE00C2B0C2B1C2B28F90D2B2C2B22296
:0D0DF900D2B0C2B1C2B28F90D2B2C2B2224B
:080DA100120DA9120DA9AC0707
:0D0DA9007590FFD2B0D2B1D2B2AF90C2B2FD
:010DB600221A
:1009F9007F647E00120CEA7F30120DBE7F0A7E00F2
:100A0900120CEA7F30120DBE7F0A7E00120CEA7FBB
:100A190030120DBE7F0A7E00120CEA7F30120DBE25
:100A29007F0A7E00120CEA7F0C120DBE7F0A7E003F
:100A3900120CEA7F01120DBE7F0A7E00120CEA7FBA
:0B0A490006120DBE7F0A7E00020CEAC0
:100D5B007F34120DBE7F017E00120CEA7F36120D1E
:080D6B00BE7F017E00020CEACC
:100DCB007F30120DBE7F017E00120CEA7F0C020DEC
:010DDB00BE59
:100D73007F01120DBE7F0A7E00120CEA7F80120DE6
:080D8300BE7F0A7E00020CEAAB
:02050300AB0744
:10050500EB540FFFC3740F9FFAEDC394205049EDD0
:100515002480FF120DBE00120DB70000120DA1AE12
:1005250007EAC394084013EA24F8FF7401A80708F2
:100535008002C333D8FC4204800D7401A8020880F0
:1005450002C333D8FC4206ED2480FF120DBE001213
:100555000DB700120DA98059EDC39420405EED241E
:1005650060FF120DBE00EBC4540F2488FF120DBEB0
:1005750000120DA1AE07EAC394084013EA24F8FF60
:100585007401A807088002C333D8FC4204800FAF6A
:10059500027401A807088002C333D8FC4206ED2483
:1005A50060FF120DBE00EBC4540F2488FF120DBE70
:0C05B50000AF04120DF9AF06120DF900A2
:0105C1002217
:060AF8008F128D138B1418
:070AFE00E513D39514400934
:090B0500851315851413851514E0
:100B0E00A913E5142513FFE433C313EF13FFE9C351
:100B1E009F500AAD01AF121205030980E5E51425B9
:100B2E0013FFE433C313EF1304F9E9D39514500AFA
:0A0B3E00AD01AF121205030980F0AB
:010B4800228A
:100BD200E4FDED2480FF120DBE7F80120DBEE4FE07
:100BE200E4FF120DF9120DF90EBE10F40DBD20E254
:100BF200E4FDED2480FF120DBE7F88120DBEE4FEDF
:100C0200E4FF120DF9120DF90EBE10F40DBD20E233
:010C120022BF
:060AA6008B0A8A0B890C8B
:100AAC00E4F50DED7003750E80BD0103750E90BD60
:100ABC000203750E88BD0303750E98EF250EF50E17
:100ACC00FF120DBE7F027E00120CEAAB0AAA0BA924
:100ADC000C850D8275830012044BFF600E120DF90C
:0B0AEC007F027E00120CEA050D80E086
:010AF70022DC
:100DDC00758901758CDC758A18D2A9D28CD2AF2298
:060003008B128A13891420
:10000900EF24C0FFEE34FF8F82F583E5244523609A
:1000190008E524640245237043AB24EB25E024273B
:10002900F8E6FE08E6FF7C007D021204788E158F43
:1000390016EB25E0242FF8E6FE08E6FF7C007D029A
:10004900120478AA06AB077C007D04AF82AE831246
:100059000478EB2FF518EA3EF5178041E52425E0F1
:100069002427F8E6FE08E6FF7C007D02120478AA40
:1000790006AB07AE83AF827C007D04120478EB2FB8
:10008900F516EA3EF515E52425E0242FF8E6FE08E5
:10009900E6FF7C007D021204788E178F1885383EA2
:1000A90085393F853A40853B41E4F548F549E516F0
:1000B900253FF53FE515353EF53EE5182541F54166
:1000C900E5173540F54074022549F549E43548F509
:1000D90048AE3EAF3F7C007D041204788E198F1A1A
:1000E900AE40AF417C007D04120478AD07AC06C375
:1000F900E519648094804046E51A9408E5196480FE
:100109009480503AC3EC648094804032ED9408ECBA
:10011900648094805028EDAE047803C333CE33CE87
:10012900D8F9AB122514F9E5133EFAE9251AF9EACB
:0E0139003519FA120432640160030200B72285
:010147002295
:060148008B088A09890AF8
:10014E00E4F50BAF0B7E00AB08AA09A90A12000357
:10015E00AE3EAF3F7C007D041204788E0C8F0DAE48
:10016E0040AF417C007D041204788E0E8F0FAC4898
:10017E00AD497E017F801204788E3C8F3D7C007DE0
:10018E0004120478C3740C9FF543E49EF542E543D4
:10019E00253DF545E542353CF544C3E54264809482
:1001AE00805005E4F542F543C3E5459440E54464CB
:1001BE00809480400675440075453FE50FAE0E787D
:1001CE0003C333CE33CED8F9AB08250AF9E5093E81
:1001DE00FAE9250DF9EA350CFA1204326004AD4342
:1001EE00804AE50FAE0E7803C333CE33CED8F9ABCB
:1001FE0008250AF9E5093EFAE9250DF9EA350CFA62
:07020E001204326402702C9F
:10021500E5432545FFE5423544FE7C007D02120499
:10022500788E108F11AD43EF24FCFBAF0B120AF84B
:0C023500E5112404FDAB45AF0B120AF8E4
:0C024100050BE50BC39480500302015133
:01024D00228E
:100D42000524E52470020523D39403E523648094EB
:090D5200804005E4F523F524229C
:10098800AF24EF25E02427F8E6FC08E62539F50929
:10099800E5383CF508EF25E0242FF8E6FE08E625C3
:1009A8003BFFE53A3EAB07FAAE08AF097C007D0491
:1009B8001204788E0A8F0B7C007D04AF03AE0212FE
:1009C8000478EF7803C333CE33CED8F92400F58208
:1009D80074003EF583E582250BF582E583350AF53B
:1009E80083E06401600A8508388509398A3A8B3BB7
:0109F80022DC
:10091100AF24EF25E02427F8E6FC08E6FDC3E5391E
:100921009DF509E5389CF508EF25E0242FF8E6FE52
:1009310008E6FFC3E53B9FFFE53A9EAB07FAAE0829
:10094100AF097C007D041204788E0A8F0B7C007D38
:1009510004AF03AE02120478EF7803C333CE33CE73
:10096100D8F92400F58274003EF583E582250BF564
:1009710082E583350AF583E06401600A85083885DC
:0609810009398A3A8B3BA4
:01098700224D
:090E2700D2B7D2B6C2B7C2B6229E
:070E3000C2B7D2B6D2B7220F
:020C7200AD07CC
:100C7400E4FB74807E00A803088006CEA2E713CEAE
:100C840013D8F8FFEDF582EF558224FF92B7D2B660
:060C9400C2B60BBB08DC38
:010C9A002237
:100D0800E4FFD2B7FED2B630B70D7480A8060880CB
:0D0D180002C313D8FC4207C2B60EBE08E8A5
:010D250022AB
:0A0E1D00EF24FF92B7D2B6C2B6224E
:0B0E0600D2B7D2B6A2B7E433FFC2B6E9
:010E110022BE
:100C9B008F088D09120E277FA0120C72120E06AF51
:100CAB0008120C72120E06AF09120C72120E0612FB
:090CBB000E307F057E00020CEAF8
:020C13008F1B35
:100C1500120E277FA0120C72120E06AF1B120C7259
:100C2500120E06120E277FA1120C72120E06120D5D
:0D0C3500088F1C7F01120E1D120E30AF1C27
:010C4200228F
:10067300020C43E493A3F8E493A34003F68001F24E
:1006830008DFF48029E493A3F85407240CC8C33388
:10069300C4540F4420C8834004F456800146F6DF57
:1006A300E4800B010204081020408090024EE47E97
:1006B300019360BCA3FF543F30E509541FFEE4934C
:1006C300A360010ECF54C025E060A840B8E493A313
:1006D300FAE493A3F8E493A3C8C582C8CAC583CA3E
:1006E300F0A3C8C582C8CAC583CADFE9DEE780BEF6
:0103430000B9
:10043200BB010689828A83E0225002E722BBFE02C8
:09044200E32289828A83E49322FB
:10044B00BB010CE58229F582E5833AF583E0225066
:10045B0006E92582F8E622BBFE06E92582F8E222B0
:0D046B00E58229F582E5833AF583E49322CA
:10047800C2D5EC30E709B2D5E4C39DFDE49CFCEE9F
:1004880030E715B2D5E4C39FFFE49EFE1204AEC365
:10049800E49DFDE49CFC80031204AE30D507C3E460
:0604A8009FFFE49EFE220E
:1004AE00BC000BBE0029EF8DF084FFADF022E4CC32
:1004BE00F875F008EF2FFFEE33FEEC33FCEE9DECFB
:1004CE00984005FCEE9DFE0FD5F0E9E4CEFD22ED41
:1004DE00F8F5F0EE8420D21CFEADF075F008EF2F8B
:1004EE00FFED33FD4007985006D5F0F222C398FD7C
:0504FE000FD5F0EA2219
:00000001FF
