:0300000002079E56
:0C079E00787FE4F6D8FD75814A0207E57B
:10070D00205354415254204E455720202020200084
:10071D002043484F49434520202020202020200001
:10072D002045584954202020202020202020200022
:10073D0020434F4E54494E55532020202020200059
:10074D003E0020004279657E005361766520537529
:10075D0063636573732100436F6E666967757261BC
:10076D0074696F6E210020456173790020446966BC
:10077D00666963756C740045617379204D6F6465AE
:10078D00004368616C6C656E676500410023004F26
:01079D00005B
:10024E0001260001210001220002380006023A00B8
:10025E000602230000082700020000FFFE0000082F
:10026E002F0000FFFE00000002604000400101016F
:10027E000101010101010000000000000101000167
:10028E000100000001010001000001010101000157
:10029E000001010201010001000000000101000047
:1002AE000000000001010101010101010160400097
:1002BE0080010101010101010101000101000000A5
:1002CE000101000101000101010100000000010017
:1002DE000101000101010100010100000001000007
:1002EE0001010101000000020101010101010101F2
:1002FE00016040000000000000000000000000004F
:10030E0000000000000000000000000000000000DF
:10031E0000000000000000000000000000000000CF
:10032E0000000000000000000000000000000000BF
:05033E000000000000BA
:0D0E9B00C204C203C200C202C205C201228D
:0B0EC100E5267003020E22120C7E22B8
:100668007BFF7A07790DE4FDFF120B527BFF7A07B7
:10067800791D7D01E4FF120B527BFF7A07792D7DEE
:1006880002E4FF120B527BFF7A07793D7D03E4FFFA
:10069800120B52E52170157BFF7A07794DFDFF1289
:1006A8000B527BFF7A07794F7D038036E521B40131
:1006B800177BFF7A07794D7D01E4FF120B527BFF10
:1006C8007A07794FE4FD8038E521B402187BFF7A78
:1006D80007794D7D02E4FF120B527BFF7A07794FB1
:1006E8007D01E4801BE521B4031A7BFF7A07794D6D
:1006F8007D03E4FF120B527BFF7A07794F7D02E4FA
:05070800FF120B52225C
:1008B40020A7147FBE7E00120D990521E521B40402
:1008C40003E4F52102066820B36E7FBE7E00120D9C
:1008D40099E5217020752601120E22120E0A120CBF
:1008E4007E753800753906753A00753B06E4F523C4
:1008F400F52412082AE521B4010C752602120E22F1
:10090400752602120E22E521B4021C120E227BFF70
:100914007A0779517D027F02120B527FE87E03121F
:100924000D99120E2280FEE521B4030C75260112E6
:090934000E22120E0A120DD5224A
:10093D0020B40C7FBE7E00120D99120A34801C204B
:10094D00B50C7FBE7E00120D991209BD800D20A43D
:10095D000D7FBE7E00120D99120DF1020C7E20A5A9
:10096D004E7FBE7E00120D99E4F526120C7E120EFE
:10097D007A120DD57F057E00120D99120E227BFF86
:10098D007A0779567D017F01120B527FE87E0312A3
:10099D000D99120E227F647E00120D99120E227F88
:1009AD00E87E03120D99120668120E2212066822B5
:100E3A00E4F51F7B0A7D01AF1F120BA4051FE51FF6
:050E4A00C3948040EE9E
:010E4F002280
:100B0000AE3AAF3B7C007D04120478EF7803C33328
:100B1000CE33CED8F92400F58274003EF583AE388A
:100B2000AF397C007D04120478E5822FF582E583DD
:100B30003EF583E0B4021AE4F526120E7A7BFF7AC2
:100B40000779647D027F01120B527FB87E0B120D74
:020B50009922E8
:100BF5007BFF7A077973E4FDFF120B527BFF7A07BF
:100C050079797D01E4FF120B52E5227BFF70117AA1
:100C150007794DFDFF120B527BFF7A07794F801044
:100C25007A07794FE4FDFF120B527BFF7A07794D66
:080C35007D01E4FF120B5222C5
:10034400120BF520A4167FBE7E00120D990522E53E
:1003540022D394014003E4F522020BF530A50302F5
:100364000431E5227056F508E4F509E50875F0084E
:10037400A42440F582E43400F583E5822509F5825E
:10038400E43583F583E0FFE50875F008A42400F55F
:1003940082E43400F583E5822509F582E43583F5AA
:1003A40083EFF00509E509B408C10508E508B408B8
:1003B400B7120E227BFF7A077984805AE522640102
:1003C400706BF508E4F509E50875F008A42480F5D8
:1003D40082E43400F583E5822509F582E43583F56A
:1003E40083E0FFE50875F008A42400F582E43400F6
:1003F400F583E5822509F582E43583F583EFF0057D
:1004040009E509B408C10508E508B408B7120E22C5
:100414007BFF7A07798E7D017F01120B527FE87E84
:0D04240003120D99E4F526120E221206684F
:0104310022A8
:10082A00E5227040FEE4FFEE75F008A42440F5824C
:10083A00E43400F583E5822FF582E43583F583E01D
:10084A00FDEE75F008A42400F582E43400F583E592
:10085A00822FF582E43583F583EDF00FBF08C80EC9
:10086A00BE08C222E5226401703FFEE4FFEE75F085
:10087A0008A42480F582E43400F583E5822FF5820A
:10088A00E43583F583E0FDEE75F008A42400F582D3
:10089A00E43400F583E5822FF582E43583F583EDB0
:0908AA00F00FBF08C80EBE08C221
:0108B3002222
:100D73007F01120CF17538008F397F05120CF17564
:100D83003A008F3B7F09120CF17523008F247F0DEE
:060D9300120CF18F222278
:100DD5007D027F01120D4A7D027F05120D4A7D01BC
:0C0DE5007F09120D4A7D017F0D020D4AAE
:100C3D00E4FFE4FEEF75F008A42480F582E43400AF
:100C4D00F583E5822EF582E43583F583E0FDEF75BE
:100C5D00F008A42400F582E43400F583E5822EF536
:100C6D0082E43583F583EDF00EBE08C80FBF08C2D0
:010C7D002254
:1005C200120E7A120E22E4F51BE4F51CE51B75F0FF
:1005D20008A42400F582E43400F583E582251CF5A5
:1005E20082E43583F583E0700C7BFF7A0779987D8E
:1005F200017F018052E51B75F008A42400F582E416
:100602003400F583E582251CF582E43583F583E029
:10061200B4010C7BFF7A07799AAD1BAF1C8028E5E9
:100622001B75F008A42400F582E43400F583E5820A
:10063200251CF582E43583F583E0B4020D7BFF7A55
:1006420007799CAD1BAF1C120B52051CE51CC39411
:100652000850030205CE051BE51BC3940850030294
:0506620005CB20B3FDF3
:010667002270
:100CBF00120AA5120C3D120668E52670051208B43B
:100CCF0080F7E526B4020512034480EDE526B40152
:100CDF00E812093D7B017A007900120148120B00DE
:020CEF0080D7AC
:100D9900D3EF9400EE940040147D6E7C00ED1D703D
:0D0DA900011CED4C70F7EF1F70E61E80E39B
:010DB600221A
:070E6600EBC4540F2480FFD0
:0D0E6D00C2B0C2B1C2B28F90D2B2C2B222E6
:0D0EA800D2B0C2B1C2B28F90D2B2C2B2229B
:080E5000120E58120E58AC07F7
:0D0E58007590FFD2B0D2B1D2B2AF90C2B24D
:010E6500226A
:100AA5007F647E00120D997F30120E6D7F0A7E00E5
:100AB500120D997F30120E6D7F0A7E00120D997FFF
:100AC50030120E6D7F0A7E00120D997F30120E6D69
:100AD5007F0A7E00120D997F0C120E6D7F0A7E0033
:100AE500120D997F01120E6D7F0A7E00120D997FFE
:0B0AF50006120E6D7F0A7E00020D99B4
:100E0A007F34120E6D7F017E00120D997F36120E0D
:080E1A006D7F017E00020D99BD
:100E7A007F30120E6D7F017E00120D997F0C020EDB
:010E8A006DFA
:100E22007F01120E6D7F0A7E00120D997F80120ED5
:080E32006D7F0A7E00020D999C
:02050300AB0744
:10050500EB540FFFC3740F9FFAEDC394205049EDD0
:100515002480FF120E6D00120E660000120E50AE02
:1005250007EAC394084013EA24F8FF7401A80708F2
:100535008002C333D8FC4204800D7401A8020880F0
:1005450002C333D8FC4206ED2480FF120E6D001263
:100555000E6600120E588059EDC39420405EED24BE
:1005650060FF120E6D00EBC4540F2488FF120E6D50
:1005750000120E50AE07EAC394084013EA24F8FFB0
:100585007401A807088002C333D8FC4204800FAF6A
:10059500027401A807088002C333D8FC4206ED2483
:1005A50060FF120E6D00EBC4540F2488FF120E6D10
:0C05B50000AF04120EA8AF06120EA80042
:0105C1002217
:060BA4008F128D138B146B
:070BAA00E513D39514400987
:090BB10085131585141385151434
:100BBA00A913E5142513FFE433C313EF13FFE9C3A5
:100BCA009F500AAD01AF121205030980E5E514250D
:100BDA0013FFE433C313EF1304F9E9D39514500A4E
:0A0BEA00AD01AF121205030980F0FF
:010BF40022DE
:100C7E00E4FDED2480FF120E6D7F80120E6DE4FEFA
:100C8E00E4FF120EA8120EA80EBE10F40DBD20E247
:100C9E00E4FDED2480FF120E6D7F88120E6DE4FED2
:100CAE00E4FF120EA8120EA80EBE10F40DBD20E227
:010CBE002213
:060B52008B0A8A0B890CDE
:100B5800E4F50DED7003750E80BD0103750E90BDB3
:100B68000203750E88BD0303750E98EF250EF50E6A
:100B7800FF120E6D7F027E00120D99AB0AAA0BA917
:100B88000C850D8275830012044BFF600E120EA8AF
:0B0B98007F027E00120D99050D80E029
:010BA300222F
:100E8B00758901758CDC758A18D2A9D28CD2AF22E8
:060003008B128A13891420
:10000900EF24C0FFEE34FF8F82F583E5244523609A
:1000190008E524640245237043AB24EB25E024273B
:10002900F8E6FE08E6FF7C007D021204788E158F43
:1000390016EB25E0242FF8E6FE08E6FF7C007D029A
:10004900120478AA06AB077C007D04AF82AE831246
:100059000478EB2FF518EA3EF5178041E52425E0F1
:100069002427F8E6FE08E6FF7C007D02120478AA40
:1000790006AB07AE83AF827C007D04120478EB2FB8
:10008900F516EA3EF515E52425E0242FF8E6FE08E5
:10009900E6FF7C007D021204788E178F1885383EA2
:1000A90085393F853A40853B41E4F548F549E516F0
:1000B900253FF53FE515353EF53EE5182541F54166
:1000C900E5173540F54074022549F549E43548F509
:1000D90048AE3EAF3F7C007D041204788E198F1A1A
:1000E900AE40AF417C007D04120478AD07AC06C375
:1000F900E519648094804046E51A9408E5196480FE
:100109009480503AC3EC648094804032ED9408ECBA
:10011900648094805028EDAE047803C333CE33CE87
:10012900D8F9AB122514F9E5133EFAE9251AF9EACB
:0E0139003519FA120432640160030200B72285
:010147002295
:060148008B088A09890AF8
:10014E00E4F50BAF0B7E00AB08AA09A90A12000357
:10015E00AE3EAF3F7C007D041204788E0C8F0DAE48
:10016E0040AF417C007D041204788E0E8F0FAC4898
:10017E00AD497E017F801204788E3C8F3D7C007DE0
:10018E0004120478C3740C9FF543E49EF542E543D4
:10019E00253DF545E542353CF544C3E54264809482
:1001AE00805005E4F542F543C3E5459440E54464CB
:1001BE00809480400675440075453FE50FAE0E787D
:1001CE0003C333CE33CED8F9AB08250AF9E5093E81
:1001DE00FAE9250DF9EA350CFA1204326004AD4342
:1001EE00804AE50FAE0E7803C333CE33CED8F9ABCB
:1001FE0008250AF9E5093EFAE9250DF9EA350CFA62
:07020E001204326402702C9F
:10021500E5432545FFE5423544FE7C007D02120499
:10022500788E108F11AD43EF24FCFBAF0B120BA49E
:0C023500E5112404FDAB45AF0B120BA437
:0C024100050BE50BC39480500302015133
:01024D00228E
:100DF1000524E52470020523D39403E5236480943C
:090E0100804005E4F523F52422EC
:100A3400AF24EF25E02427F8E6FC08E62539F5097C
:100A4400E5383CF508EF25E0242FF8E6FE08E62516
:100A54003BFFE53A3EAB07FAAE08AF097C007D04E4
:100A64001204788E0A8F0B7C007D04AF03AE021251
:100A74000478EF7803C333CE33CED8F92400F5825B
:100A840074003EF583E582250BF582E583350AF58E
:100A940083E06401600A8508388509398A3A8B3B0A
:010AA400222F
:1009BD00AF24EF25E02427F8E6FC08E6FDC3E53972
:1009CD009DF509E5389CF508EF25E0242FF8E6FEA6
:1009DD0008E6FFC3E53B9FFFE53A9EAB07FAAE087D
:1009ED00AF097C007D041204788E0A8F0B7C007D8C
:1009FD0004AF03AE02120478EF7803C333CE33CEC7
:100A0D00D8F92400F58274003EF583E582250BF5B7
:100A1D0082E583350AF583E06401600A850838852F
:060A2D0009398A3A8B3BF7
:010A330022A0
:090ED600D2B7D2B6C2B7C2B622EF
:070EDF00C2B7D2B6D2B72260
:020D2100AD071C
:100D2300E4FB74807E00A803088006CEA2E713CEFE
:100D330013D8F8FFEDF582EF558224FF92B7D2B6B0
:060D4300C2B60BBB08DC88
:010D49002287
:100DB700E4FFD2B7FED2B630B70D7480A80608801C
:0D0DC70002C313D8FC4207C2B60EBE08E8F6
:010DD40022FC
:0A0ECC00EF24FF92B7D2B6C2B6229F
:0B0EB500D2B7D2B6A2B7E433FFC2B63A
:010EC000220F
:100D4A008F088D09120ED67FA0120D21120EB5AF93
:100D5A0008120D21120EB5AF09120D21120EB5128D
:090D6A000EDF7F057E00020D99E9
:020CF1008F1D55
:100CF300120ED67FA0120D21120EB5AF1D120D21BB
:100D0300120EB5120ED67FA1120D21120EB5120DC1
:0D0D1300B78F1E7F01120ECC120EDFAF1E37
:010D200022B0
:1007AA00020CBFE493A3F8E493A34003F68001F29A
:1007BA0008DFF48029E493A3F85407240CC8C33350
:1007CA00C4540F4420C8834004F456800146F6DF1F
:1007DA00E4800B010204081020408090024EE47E5F
:1007EA00019360BCA3FF543F30E509541FFEE49314
:1007FA00A360010ECF54C025E060A840B8E493A3DB
:10080A00FAE493A3F8E493A3C8C582C8CAC583CA05
:10081A00F0A3C8C582C8CAC583CADFE9DEE780BEBD
:0103430000B9
:10043200BB010689828A83E0225002E722BBFE02C8
:09044200E32289828A83E49322FB
:10044B00BB010CE58229F582E5833AF583E0225066
:10045B0006E92582F8E622BBFE06E92582F8E222B0
:0D046B00E58229F582E5833AF583E49322CA
:10047800C2D5EC30E709B2D5E4C39DFDE49CFCEE9F
:1004880030E715B2D5E4C39FFFE49EFE1204AEC365
:10049800E49DFDE49CFC80031204AE30D507C3E460
:0604A8009FFFE49EFE220E
:1004AE00BC000BBE0029EF8DF084FFADF022E4CC32
:1004BE00F875F008EF2FFFEE33FEEC33FCEE9DECFB
:1004CE00984005FCEE9DFE0FD5F0E9E4CEFD22ED41
:1004DE00F8F5F0EE8420D21CFEADF075F008EF2F8B
:1004EE00FFED33FD4007985006D5F0F222C398FD7C
:0504FE000FD5F0EA2219
:00000001FF
