:030000000200F506
:0C00F500787FE4F6D8FD75812E02013CF6
:10000E001203A61204108F28E528B4010CE5277000
:10001E00047F0180027F008F27E528B40207E4F5F4
:10002E0025F524F526E52864037033E525FD7C00CF
:10003E00E4FF12032C7F057E001203D3E524FD7C22
:10004E00007F0112032C7F057E001203D3E526FDEF
:10005E007C007F0212032C7F057E001203D3E5285D
:10006E00B40415E4FF1202AC8F257F011202AC8F8F
:10007E00247F021202AC8F26E52575F00A84FD7CE2
:10008E00007F01120407E52575F00A84E5F0FD7C7A
:10009E00007F021204077D0B7C007F03120407E52C
:1000AE002475F00A84FD7C007F04120407E5247594
:1000BE00F00A84E5F0FD7C007F051204077D0B7CC1
:1000CE00007F06120407E52675F00A84FD7C007F8A
:1000DE0007120407E52675F00A84E5F0FD7C007F23
:0700EE0008120407020011D3
:10030500E52760220526E526C394644019E4F52611
:100315000524E524943C400EE4F5240525E52594C3
:070325003C4003E4F5252232
:03000B000201816E
:10018100C0E0C0F0C083C082C0D075D000C000C044
:0D01910001C002C003C004C005C006C007C5
:10019E00758A18758CFC051FE51F7002051EC39429
:1001AE0014E51E94004009751E00751F001202739F
:1001BE000521E52170020520C39402E5209400403C
:1001CE000975200075210012038B0523E5237002AB
:1001DE000522C3940AE52294004009752200752376
:0401EE0000120305F3
:1001F200D007D006D005D004D003D002D001D00061
:0B020200D0D0D082D083D0F0D0E0320A
:10032C008F2C8C2D8D2E1203FE7FA01202DC12035B
:10033C00E8AF2C1202DC1203E8AF2E1202DC12031F
:04034C00E8020003C0
:0202AC008F2C95
:1002AE001203FE7FA01202DC1203E8AF2C1202DC56
:1002BE001203E81203FE7FA11202DC1203E81203FE
:0D02CE00508F2D7F011203F4120003AF2D9D
:0102DB002200
:0903FE00D2A0D2A1C2A0C2A1222A
:07000300C2A0D2A1D2A0228D
:0202DC00AD076C
:1002DE00E4FB74807E00A803088006CEA2E713CE4E
:1002EE0013D8F8FFEDF582EF558224FF92A0D2A12C
:0602FE00C2A10BBB08DCED
:0103040022D6
:10035000E4FFD2A0FED2A130A00D7480A8060880D0
:0D03600002C313D8FC4207C2A10EBE08E87C
:01036D00226D
:0A03F400EF24FF92A0D2A1C2A122C3
:0B03E800D2A0D2A1A2A0E433FFC2A16A
:0103F30022E7
:05041000E4AF2BF52B09
:0104150022C4
:1003BD00E4FF20B1010F20B0027F0220B2027F03C3
:0503CD0020B3027F04D3
:0103D2002208
:1002730085292A1203BD8F29E52AB40107E52970D0
:1002830003752B01E52AB40207E5297003752B02D8
:10029300E52AB40307E5297003752B03E52AB404A3
:0802A30007E5297003752B0427
:0102AB002230
:10036E000909000A0A0A0A0A0A0A0A0C123F065B5F
:0C037E004F666D7D077F6F004001080195
:09040700AE0574092FF8A60622C7
:10020D00E4F580EF14B40800505490022575F00306
:10021D00A4C58325F0C5837302023D02024102028B
:10022D004502024902024D02025502025D020265BB
:10023D00D2A4800ED2A48012D2A48016D2A4801A89
:10024D00C2A4D2A3D2A28016C2A4D2A3C2A2800EEF
:10025D00C2A4C2A3D2A28006C2A4C2A3C2A2741217
:06026D002DF8E6F58022E9
:10038B0074092508F8E6FD7C00AF0812020D05087C
:0A039B00E508C3940940037508014A
:0103A5002235
:1003A6005389F0438901758A18758CFCC28DD28CED
:0703B600D2A9D2AFC2B922A7
:1003D300EF1FAC0670011E4C600A7D027CEFDCFE51
:0403E300DDFC80ECD1
:0103E70022F3
:1001010002000EE493A3F8E493A34003F68001F206
:1001110008DFF48029E493A3F85407240CC8C333FF
:10012100C4540F4420C8834004F456800146F6DFCE
:10013100E4800B010204081020408090036EE47EED
:10014100019360BCA3FF543F30E509541FFEE493C3
:10015100A360010ECF54C025E060A840B8E493A38A
:10016100FAE493A3F8E493A3C8C582C8CAC583CAB5
:10017100F0A3C8C582C8CAC583CADFE9DEE780BE6D
:01038A000072
:00000001FF
